{
  "contractName": "MyToken",
  "abi": [
    {
      "inputs": [
        {
          "internalType": "string",
          "name": "_baseURI",
          "type": "string"
        }
      ],
      "stateMutability": "nonpayable",
      "type": "constructor"
    },
    {
      "anonymous": false,
      "inputs": [
        {
          "indexed": true,
          "internalType": "address",
          "name": "owner",
          "type": "address"
        },
        {
          "indexed": true,
          "internalType": "address",
          "name": "approved",
          "type": "address"
        },
        {
          "indexed": true,
          "internalType": "uint256",
          "name": "tokenId",
          "type": "uint256"
        }
      ],
      "name": "Approval",
      "type": "event"
    },
    {
      "anonymous": false,
      "inputs": [
        {
          "indexed": true,
          "internalType": "address",
          "name": "owner",
          "type": "address"
        },
        {
          "indexed": true,
          "internalType": "address",
          "name": "operator",
          "type": "address"
        },
        {
          "indexed": false,
          "internalType": "bool",
          "name": "approved",
          "type": "bool"
        }
      ],
      "name": "ApprovalForAll",
      "type": "event"
    },
    {
      "anonymous": false,
      "inputs": [
        {
          "indexed": true,
          "internalType": "address",
          "name": "to",
          "type": "address"
        },
        {
          "indexed": true,
          "internalType": "uint256",
          "name": "tokenId",
          "type": "uint256"
        }
      ],
      "name": "Minted",
      "type": "event"
    },
    {
      "anonymous": false,
      "inputs": [
        {
          "indexed": true,
          "internalType": "address",
          "name": "previousOwner",
          "type": "address"
        },
        {
          "indexed": true,
          "internalType": "address",
          "name": "newOwner",
          "type": "address"
        }
      ],
      "name": "OwnershipTransferred",
      "type": "event"
    },
    {
      "anonymous": false,
      "inputs": [
        {
          "indexed": false,
          "internalType": "address",
          "name": "account",
          "type": "address"
        }
      ],
      "name": "Paused",
      "type": "event"
    },
    {
      "anonymous": false,
      "inputs": [
        {
          "indexed": true,
          "internalType": "address",
          "name": "from",
          "type": "address"
        },
        {
          "indexed": true,
          "internalType": "address",
          "name": "to",
          "type": "address"
        },
        {
          "indexed": true,
          "internalType": "uint256",
          "name": "tokenId",
          "type": "uint256"
        }
      ],
      "name": "Transfer",
      "type": "event"
    },
    {
      "anonymous": false,
      "inputs": [
        {
          "indexed": false,
          "internalType": "address",
          "name": "account",
          "type": "address"
        }
      ],
      "name": "Unpaused",
      "type": "event"
    },
    {
      "inputs": [],
      "name": "MAX_SUPPLY",
      "outputs": [
        {
          "internalType": "uint256",
          "name": "",
          "type": "uint256"
        }
      ],
      "stateMutability": "view",
      "type": "function"
    },
    {
      "inputs": [],
      "name": "MINT_PRICE",
      "outputs": [
        {
          "internalType": "uint256",
          "name": "",
          "type": "uint256"
        }
      ],
      "stateMutability": "view",
      "type": "function"
    },
    {
      "inputs": [
        {
          "internalType": "address",
          "name": "to",
          "type": "address"
        },
        {
          "internalType": "uint256",
          "name": "tokenId",
          "type": "uint256"
        }
      ],
      "name": "approve",
      "outputs": [],
      "stateMutability": "nonpayable",
      "type": "function"
    },
    {
      "inputs": [
        {
          "internalType": "address",
          "name": "owner",
          "type": "address"
        }
      ],
      "name": "balanceOf",
      "outputs": [
        {
          "internalType": "uint256",
          "name": "",
          "type": "uint256"
        }
      ],
      "stateMutability": "view",
      "type": "function"
    },
    {
      "inputs": [
        {
          "internalType": "uint256",
          "name": "tokenId",
          "type": "uint256"
        }
      ],
      "name": "getApproved",
      "outputs": [
        {
          "internalType": "address",
          "name": "",
          "type": "address"
        }
      ],
      "stateMutability": "view",
      "type": "function"
    },
    {
      "inputs": [
        {
          "internalType": "address",
          "name": "owner",
          "type": "address"
        },
        {
          "internalType": "address",
          "name": "operator",
          "type": "address"
        }
      ],
      "name": "isApprovedForAll",
      "outputs": [
        {
          "internalType": "bool",
          "name": "",
          "type": "bool"
        }
      ],
      "stateMutability": "view",
      "type": "function"
    },
    {
      "inputs": [],
      "name": "name",
      "outputs": [
        {
          "internalType": "string",
          "name": "",
          "type": "string"
        }
      ],
      "stateMutability": "view",
      "type": "function"
    },
    {
      "inputs": [],
      "name": "owner",
      "outputs": [
        {
          "internalType": "address",
          "name": "",
          "type": "address"
        }
      ],
      "stateMutability": "view",
      "type": "function"
    },
    {
      "inputs": [
        {
          "internalType": "uint256",
          "name": "tokenId",
          "type": "uint256"
        }
      ],
      "name": "ownerOf",
      "outputs": [
        {
          "internalType": "address",
          "name": "",
          "type": "address"
        }
      ],
      "stateMutability": "view",
      "type": "function"
    },
    {
      "inputs": [],
      "name": "paused",
      "outputs": [
        {
          "internalType": "bool",
          "name": "",
          "type": "bool"
        }
      ],
      "stateMutability": "view",
      "type": "function"
    },
    {
      "inputs": [],
      "name": "renounceOwnership",
      "outputs": [],
      "stateMutability": "nonpayable",
      "type": "function"
    },
    {
      "inputs": [
        {
          "internalType": "address",
          "name": "from",
          "type": "address"
        },
        {
          "internalType": "address",
          "name": "to",
          "type": "address"
        },
        {
          "internalType": "uint256",
          "name": "tokenId",
          "type": "uint256"
        }
      ],
      "name": "safeTransferFrom",
      "outputs": [],
      "stateMutability": "nonpayable",
      "type": "function"
    },
    {
      "inputs": [
        {
          "internalType": "address",
          "name": "from",
          "type": "address"
        },
        {
          "internalType": "address",
          "name": "to",
          "type": "address"
        },
        {
          "internalType": "uint256",
          "name": "tokenId",
          "type": "uint256"
        },
        {
          "internalType": "bytes",
          "name": "data",
          "type": "bytes"
        }
      ],
      "name": "safeTransferFrom",
      "outputs": [],
      "stateMutability": "nonpayable",
      "type": "function"
    },
    {
      "inputs": [
        {
          "internalType": "address",
          "name": "operator",
          "type": "address"
        },
        {
          "internalType": "bool",
          "name": "approved",
          "type": "bool"
        }
      ],
      "name": "setApprovalForAll",
      "outputs": [],
      "stateMutability": "nonpayable",
      "type": "function"
    },
    {
      "inputs": [],
      "name": "symbol",
      "outputs": [
        {
          "internalType": "string",
          "name": "",
          "type": "string"
        }
      ],
      "stateMutability": "view",
      "type": "function"
    },
    {
      "inputs": [
        {
          "internalType": "uint256",
          "name": "index",
          "type": "uint256"
        }
      ],
      "name": "tokenByIndex",
      "outputs": [
        {
          "internalType": "uint256",
          "name": "",
          "type": "uint256"
        }
      ],
      "stateMutability": "view",
      "type": "function"
    },
    {
      "inputs": [
        {
          "internalType": "address",
          "name": "owner",
          "type": "address"
        },
        {
          "internalType": "uint256",
          "name": "index",
          "type": "uint256"
        }
      ],
      "name": "tokenOfOwnerByIndex",
      "outputs": [
        {
          "internalType": "uint256",
          "name": "",
          "type": "uint256"
        }
      ],
      "stateMutability": "view",
      "type": "function"
    },
    {
      "inputs": [],
      "name": "totalSupply",
      "outputs": [
        {
          "internalType": "uint256",
          "name": "",
          "type": "uint256"
        }
      ],
      "stateMutability": "view",
      "type": "function"
    },
    {
      "inputs": [
        {
          "internalType": "address",
          "name": "from",
          "type": "address"
        },
        {
          "internalType": "address",
          "name": "to",
          "type": "address"
        },
        {
          "internalType": "uint256",
          "name": "tokenId",
          "type": "uint256"
        }
      ],
      "name": "transferFrom",
      "outputs": [],
      "stateMutability": "nonpayable",
      "type": "function"
    },
    {
      "inputs": [
        {
          "internalType": "address",
          "name": "newOwner",
          "type": "address"
        }
      ],
      "name": "transferOwnership",
      "outputs": [],
      "stateMutability": "nonpayable",
      "type": "function"
    },
    {
      "inputs": [
        {
          "internalType": "string",
          "name": "_baseURI",
          "type": "string"
        }
      ],
      "name": "setBaseURI",
      "outputs": [],
      "stateMutability": "nonpayable",
      "type": "function"
    },
    {
      "inputs": [],
      "name": "pause",
      "outputs": [],
      "stateMutability": "nonpayable",
      "type": "function"
    },
    {
      "inputs": [],
      "name": "unpause",
      "outputs": [],
      "stateMutability": "nonpayable",
      "type": "function"
    },
    {
      "inputs": [
        {
          "internalType": "address",
          "name": "to",
          "type": "address"
        },
        {
          "internalType": "string",
          "name": "uri",
          "type": "string"
        }
      ],
      "name": "safeMint",
      "outputs": [
        {
          "internalType": "uint256",
          "name": "",
          "type": "uint256"
        }
      ],
      "stateMutability": "payable",
      "type": "function"
    },
    {
      "inputs": [
        {
          "internalType": "uint256",
          "name": "tokenId",
          "type": "uint256"
        }
      ],
      "name": "tokenURI",
      "outputs": [
        {
          "internalType": "string",
          "name": "",
          "type": "string"
        }
      ],
      "stateMutability": "view",
      "type": "function"
    },
    {
      "inputs": [
        {
          "internalType": "bytes4",
          "name": "interfaceId",
          "type": "bytes4"
        }
      ],
      "name": "supportsInterface",
      "outputs": [
        {
          "internalType": "bool",
          "name": "",
          "type": "bool"
        }
      ],
      "stateMutability": "view",
      "type": "function"
    }
  ],
  "bytecode": "0x6080604052662386f26fc10000600c55600a600d553480156200002157600080fd5b50604051620042033803806200420383398181016040528101906200004791906200045d565b6040518060400160405280600781526020017f4d79546f6b656e000000000000000000000000000000000000000000000000008152506040518060400160405280600381526020017f4d544b00000000000000000000000000000000000000000000000000000000008152508160009080519060200190620000cb92919062000210565b508060019080519060200190620000e492919062000210565b50505062000107620000fb6200014260201b60201c565b6200014a60201b60201c565b6000600b60146101000a81548160ff02191690831515021790555080600f90805190602001906200013a92919062000210565b505062000512565b600033905090565b6000600b60009054906101000a900473ffffffffffffffffffffffffffffffffffffffff16905081600b60006101000a81548173ffffffffffffffffffffffffffffffffffffffff021916908373ffffffffffffffffffffffffffffffffffffffff1602179055508173ffffffffffffffffffffffffffffffffffffffff168173ffffffffffffffffffffffffffffffffffffffff167f8be0079c531659141344cd1fd0a4f28419497f9722a3daafe3b4186f6b6457e060405160405180910390a35050565b8280546200021e90620004dd565b90600052602060002090601f0160209004810192826200024257600085556200028e565b82601f106200025d57805160ff19168380011785556200028e565b828001600101855582156200028e579182015b828111156200028d57825182559160200191906001019062000270565b5b5090506200029d9190620002a1565b5090565b5b80821115620002bc576000816000905550600101620002a2565b5090565b6000604051905090565b600080fd5b600080fd5b600080fd5b600080fd5b6000601f19601f8301169050919050565b7f4e487b7100000000000000000000000000000000000000000000000000000000600052604160045260246000fd5b6200032982620002de565b810181811067ffffffffffffffff821117156200034b576200034a620002ef565b5b80604052505050565b600062000360620002c0565b90506200036e82826200031e565b919050565b600067ffffffffffffffff821115620003915762000390620002ef565b5b6200039c82620002de565b9050602081019050919050565b60005b83811015620003c9578082015181840152602081019050620003ac565b83811115620003d9576000848401525b50505050565b6000620003f6620003f08462000373565b62000354565b905082815260208101848484011115620004155762000414620002d9565b5b62000422848285620003a9565b509392505050565b600082601f830112620004425762000441620002d4565b5b815162000454848260208601620003df565b91505092915050565b600060208284031215620004765762000475620002ca565b5b600082015167ffffffffffffffff811115620004975762000496620002cf565b5b620004a5848285016200042a565b91505092915050565b7f4e487b7100000000000000000000000000000000000000000000000000000000600052602260045260246000fd5b60006002820490506001821680620004f657607f821691505b6020821081036200050c576200050b620004ae565b5b50919050565b613ce180620005226000396000f3fe6080604052600436106101815760003560e01c80636352211e116100d1578063a22cb4651161008a578063c87b56dd11610064578063c87b56dd1461055c578063d204c45e14610599578063e985e9c5146105c9578063f2fde38b1461060657610181565b8063a22cb465146104df578063b88d4fde14610508578063c002d23d1461053157610181565b80636352211e146103e157806370a082311461041e578063715018a61461045b5780638456cb59146104725780638da5cb5b1461048957806395d89b41146104b457610181565b80632f745c591161013e57806342842e0e1161011857806342842e0e146103275780634f6ccce71461035057806355f804b31461038d5780635c975abb146103b657610181565b80632f745c59146102a857806332cb6b0c146102e55780633f4ba83a1461031057610181565b806301ffc9a71461018657806306fdde03146101c3578063081812fc146101ee578063095ea7b31461022b57806318160ddd1461025457806323b872dd1461027f575b600080fd5b34801561019257600080fd5b506101ad60048036038101906101a891906128d7565b61062f565b6040516101ba919061291f565b60405180910390f35b3480156101cf57600080fd5b506101d8610641565b6040516101e591906129d3565b60405180910390f35b3480156101fa57600080fd5b5061021560048036038101906102109190612a2b565b6106d3565b6040516102229190612a99565b60405180910390f35b34801561023757600080fd5b50610252600480360381019061024d9190612ae0565b610719565b005b34801561026057600080fd5b50610269610830565b6040516102769190612b2f565b60405180910390f35b34801561028b57600080fd5b506102a660048036038101906102a19190612b4a565b61083d565b005b3480156102b457600080fd5b506102cf60048036038101906102ca9190612ae0565b61089d565b6040516102dc9190612b2f565b60405180910390f35b3480156102f157600080fd5b506102fa610942565b6040516103079190612b2f565b60405180910390f35b34801561031c57600080fd5b50610325610948565b005b34801561033357600080fd5b5061034e60048036038101906103499190612b4a565b61095a565b005b34801561035c57600080fd5b5061037760048036038101906103729190612a2b565b61097a565b6040516103849190612b2f565b60405180910390f35b34801561039957600080fd5b506103b460048036038101906103af9190612cd2565b6109eb565b005b3480156103c257600080fd5b506103cb610a0d565b6040516103d8919061291f565b60405180910390f35b3480156103ed57600080fd5b5061040860048036038101906104039190612a2b565b610a24565b6040516104159190612a99565b60405180910390f35b34801561042a57600080fd5b5061044560048036038101906104409190612d1b565b610aaa565b6040516104529190612b2f565b60405180910390f35b34801561046757600080fd5b50610470610b61565b005b34801561047e57600080fd5b50610487610b75565b005b34801561049557600080fd5b5061049e610b87565b6040516104ab9190612a99565b60405180910390f35b3480156104c057600080fd5b506104c9610bb1565b6040516104d691906129d3565b60405180910390f35b3480156104eb57600080fd5b5061050660048036038101906105019190612d74565b610c43565b005b34801561051457600080fd5b5061052f600480360381019061052a9190612e55565b610c59565b005b34801561053d57600080fd5b50610546610cbb565b6040516105539190612b2f565b60405180910390f35b34801561056857600080fd5b50610583600480360381019061057e9190612a2b565b610cc1565b60405161059091906129d3565b60405180910390f35b6105b360048036038101906105ae9190612ed8565b610cd3565b6040516105c09190612b2f565b60405180910390f35b3480156105d557600080fd5b506105f060048036038101906105eb9190612f34565b610de7565b6040516105fd919061291f565b60405180910390f35b34801561061257600080fd5b5061062d60048036038101906106289190612d1b565b610e7b565b005b600061063a82610efe565b9050919050565b60606000805461065090612fa3565b80601f016020809104026020016040519081016040528092919081815260200182805461067c90612fa3565b80156106c95780601f1061069e576101008083540402835291602001916106c9565b820191906000526020600020905b8154815290600101906020018083116106ac57829003601f168201915b5050505050905090565b60006106de82610f78565b6004600083815260200190815260200160002060009054906101000a900473ffffffffffffffffffffffffffffffffffffffff169050919050565b600061072482610a24565b90508073ffffffffffffffffffffffffffffffffffffffff168373ffffffffffffffffffffffffffffffffffffffff1603610794576040517f08c379a000000000000000000000000000000000000000000000000000000000815260040161078b90613046565b60405180910390fd5b8073ffffffffffffffffffffffffffffffffffffffff166107b3610fc3565b73ffffffffffffffffffffffffffffffffffffffff1614806107e257506107e1816107dc610fc3565b610de7565b5b610821576040517f08c379a0000000000000000000000000000000000000000000000000000000008152600401610818906130d8565b60405180910390fd5b61082b8383610fcb565b505050565b6000600880549050905090565b61084e610848610fc3565b82611084565b61088d576040517f08c379a00000000000000000000000000000000000000000000000000000000081526004016108849061316a565b60405180910390fd5b610898838383611119565b505050565b60006108a883610aaa565b82106108e9576040517f08c379a00000000000000000000000000000000000000000000000000000000081526004016108e0906131fc565b60405180910390fd5b600660008473ffffffffffffffffffffffffffffffffffffffff1673ffffffffffffffffffffffffffffffffffffffff168152602001908152602001600020600083815260200190815260200160002054905092915050565b600d5481565b610950611412565b610958611490565b565b61097583838360405180602001604052806000815250610c59565b505050565b6000610984610830565b82106109c5576040517f08c379a00000000000000000000000000000000000000000000000000000000081526004016109bc9061328e565b60405180910390fd5b600882815481106109d9576109d86132ae565b5b90600052602060002001549050919050565b6109f3611412565b80600f9080519060200190610a099291906127c8565b5050565b6000600b60149054906101000a900460ff16905090565b600080610a30836114f3565b9050600073ffffffffffffffffffffffffffffffffffffffff168173ffffffffffffffffffffffffffffffffffffffff1603610aa1576040517f08c379a0000000000000000000000000000000000000000000000000000000008152600401610a9890613329565b60405180910390fd5b80915050919050565b60008073ffffffffffffffffffffffffffffffffffffffff168273ffffffffffffffffffffffffffffffffffffffff1603610b1a576040517f08c379a0000000000000000000000000000000000000000000000000000000008152600401610b11906133bb565b60405180910390fd5b600360008373ffffffffffffffffffffffffffffffffffffffff1673ffffffffffffffffffffffffffffffffffffffff168152602001908152602001600020549050919050565b610b69611412565b610b736000611530565b565b610b7d611412565b610b856115f6565b565b6000600b60009054906101000a900473ffffffffffffffffffffffffffffffffffffffff16905090565b606060018054610bc090612fa3565b80601f0160208091040260200160405190810160405280929190818152602001828054610bec90612fa3565b8015610c395780601f10610c0e57610100808354040283529160200191610c39565b820191906000526020600020905b815481529060010190602001808311610c1c57829003601f168201915b5050505050905090565b610c55610c4e610fc3565b8383611659565b5050565b610c6a610c64610fc3565b83611084565b610ca9576040517f08c379a0000000000000000000000000000000000000000000000000000000008152600401610ca09061316a565b60405180910390fd5b610cb5848484846117c5565b50505050565b600c5481565b6060610ccc82611821565b9050919050565b6000610cdd611412565b600d54610ce8610830565b10610d28576040517f08c379a0000000000000000000000000000000000000000000000000000000008152600401610d1f90613427565b60405180910390fd5b600c54341015610d6d576040517f08c379a0000000000000000000000000000000000000000000000000000000008152600401610d6490613493565b60405180910390fd5b6000610d79600e611933565b9050610d85600e611941565b610d8f8482611957565b610d998184611975565b808473ffffffffffffffffffffffffffffffffffffffff167f30385c845b448a36257a6a1716e6ad2e1bc2cbe333cde1e69fe849ad6511adfe60405160405180910390a38091505092915050565b6000600560008473ffffffffffffffffffffffffffffffffffffffff1673ffffffffffffffffffffffffffffffffffffffff16815260200190815260200160002060008373ffffffffffffffffffffffffffffffffffffffff1673ffffffffffffffffffffffffffffffffffffffff16815260200190815260200160002060009054906101000a900460ff16905092915050565b610e83611412565b600073ffffffffffffffffffffffffffffffffffffffff168173ffffffffffffffffffffffffffffffffffffffff1603610ef2576040517f08c379a0000000000000000000000000000000000000000000000000000000008152600401610ee990613525565b60405180910390fd5b610efb81611530565b50565b60007f780e9d63000000000000000000000000000000000000000000000000000000007bffffffffffffffffffffffffffffffffffffffffffffffffffffffff1916827bffffffffffffffffffffffffffffffffffffffffffffffffffffffff19161480610f715750610f70826119e9565b5b9050919050565b610f8181611acb565b610fc0576040517f08c379a0000000000000000000000000000000000000000000000000000000008152600401610fb790613329565b60405180910390fd5b50565b600033905090565b816004600083815260200190815260200160002060006101000a81548173ffffffffffffffffffffffffffffffffffffffff021916908373ffffffffffffffffffffffffffffffffffffffff160217905550808273ffffffffffffffffffffffffffffffffffffffff1661103e83610a24565b73ffffffffffffffffffffffffffffffffffffffff167f8c5be1e5ebec7d5bd14f71427d1e84f3dd0314c0f7b2291e5b200ac8c7c3b92560405160405180910390a45050565b60008061109083610a24565b90508073ffffffffffffffffffffffffffffffffffffffff168473ffffffffffffffffffffffffffffffffffffffff1614806110d257506110d18185610de7565b5b8061111057508373ffffffffffffffffffffffffffffffffffffffff166110f8846106d3565b73ffffffffffffffffffffffffffffffffffffffff16145b91505092915050565b8273ffffffffffffffffffffffffffffffffffffffff1661113982610a24565b73ffffffffffffffffffffffffffffffffffffffff161461118f576040517f08c379a0000000000000000000000000000000000000000000000000000000008152600401611186906135b7565b60405180910390fd5b600073ffffffffffffffffffffffffffffffffffffffff168273ffffffffffffffffffffffffffffffffffffffff16036111fe576040517f08c379a00000000000000000000000000000000000000000000000000000000081526004016111f590613649565b60405180910390fd5b61120b8383836001611b0c565b8273ffffffffffffffffffffffffffffffffffffffff1661122b82610a24565b73ffffffffffffffffffffffffffffffffffffffff1614611281576040517f08c379a0000000000000000000000000000000000000000000000000000000008152600401611278906135b7565b60405180910390fd5b6004600082815260200190815260200160002060006101000a81549073ffffffffffffffffffffffffffffffffffffffff02191690556001600360008573ffffffffffffffffffffffffffffffffffffffff1673ffffffffffffffffffffffffffffffffffffffff168152602001908152602001600020600082825403925050819055506001600360008473ffffffffffffffffffffffffffffffffffffffff1673ffffffffffffffffffffffffffffffffffffffff16815260200190815260200160002060008282540192505081905550816002600083815260200190815260200160002060006101000a81548173ffffffffffffffffffffffffffffffffffffffff021916908373ffffffffffffffffffffffffffffffffffffffff160217905550808273ffffffffffffffffffffffffffffffffffffffff168473ffffffffffffffffffffffffffffffffffffffff167fddf252ad1be2c89b69c2b068fc378daa952ba7f163c4a11628f55a4df523b3ef60405160405180910390a461140d8383836001611b1e565b505050565b61141a610fc3565b73ffffffffffffffffffffffffffffffffffffffff16611438610b87565b73ffffffffffffffffffffffffffffffffffffffff161461148e576040517f08c379a0000000000000000000000000000000000000000000000000000000008152600401611485906136b5565b60405180910390fd5b565b611498611b24565b6000600b60146101000a81548160ff0219169083151502179055507f5db9ee0a495bf2e6ff9c91a7834c1ba4fdd244a5e8aa4e537bd38aeae4b073aa6114dc610fc3565b6040516114e99190612a99565b60405180910390a1565b60006002600083815260200190815260200160002060009054906101000a900473ffffffffffffffffffffffffffffffffffffffff169050919050565b6000600b60009054906101000a900473ffffffffffffffffffffffffffffffffffffffff16905081600b60006101000a81548173ffffffffffffffffffffffffffffffffffffffff021916908373ffffffffffffffffffffffffffffffffffffffff1602179055508173ffffffffffffffffffffffffffffffffffffffff168173ffffffffffffffffffffffffffffffffffffffff167f8be0079c531659141344cd1fd0a4f28419497f9722a3daafe3b4186f6b6457e060405160405180910390a35050565b6115fe611b6d565b6001600b60146101000a81548160ff0219169083151502179055507f62e78cea01bee320cd4e420270b5ea74000d11b0c9f74754ebdbfc544b05a258611642610fc3565b60405161164f9190612a99565b60405180910390a1565b8173ffffffffffffffffffffffffffffffffffffffff168373ffffffffffffffffffffffffffffffffffffffff16036116c7576040517f08c379a00000000000000000000000000000000000000000000000000000000081526004016116be90613721565b60405180910390fd5b80600560008573ffffffffffffffffffffffffffffffffffffffff1673ffffffffffffffffffffffffffffffffffffffff16815260200190815260200160002060008473ffffffffffffffffffffffffffffffffffffffff1673ffffffffffffffffffffffffffffffffffffffff16815260200190815260200160002060006101000a81548160ff0219169083151502179055508173ffffffffffffffffffffffffffffffffffffffff168373ffffffffffffffffffffffffffffffffffffffff167f17307eab39ab6107e8899845ad3d59bd9653f200f220920489ca2b5937696c31836040516117b8919061291f565b60405180910390a3505050565b6117d0848484611119565b6117dc84848484611bb7565b61181b576040517f08c379a0000000000000000000000000000000000000000000000000000000008152600401611812906137b3565b60405180910390fd5b50505050565b606061182c82610f78565b6000600a6000848152602001908152602001600020805461184c90612fa3565b80601f016020809104026020016040519081016040528092919081815260200182805461187890612fa3565b80156118c55780601f1061189a576101008083540402835291602001916118c5565b820191906000526020600020905b8154815290600101906020018083116118a857829003601f168201915b5050505050905060006118d6611d3e565b905060008151036118eb57819250505061192e565b60008251111561192057808260405160200161190892919061380f565b6040516020818303038152906040529250505061192e565b61192984611dd0565b925050505b919050565b600081600001549050919050565b6001816000016000828254019250508190555050565b611971828260405180602001604052806000815250611e38565b5050565b61197e82611acb565b6119bd576040517f08c379a00000000000000000000000000000000000000000000000000000000081526004016119b4906138a5565b60405180910390fd5b80600a600084815260200190815260200160002090805190602001906119e49291906127c8565b505050565b60007f80ac58cd000000000000000000000000000000000000000000000000000000007bffffffffffffffffffffffffffffffffffffffffffffffffffffffff1916827bffffffffffffffffffffffffffffffffffffffffffffffffffffffff19161480611ab457507f5b5e139f000000000000000000000000000000000000000000000000000000007bffffffffffffffffffffffffffffffffffffffffffffffffffffffff1916827bffffffffffffffffffffffffffffffffffffffffffffffffffffffff1916145b80611ac45750611ac382611e93565b5b9050919050565b60008073ffffffffffffffffffffffffffffffffffffffff16611aed836114f3565b73ffffffffffffffffffffffffffffffffffffffff1614159050919050565b611b1884848484611efd565b50505050565b50505050565b611b2c610a0d565b611b6b576040517f08c379a0000000000000000000000000000000000000000000000000000000008152600401611b6290613911565b60405180910390fd5b565b611b75610a0d565b15611bb5576040517f08c379a0000000000000000000000000000000000000000000000000000000008152600401611bac9061397d565b60405180910390fd5b565b6000611bd88473ffffffffffffffffffffffffffffffffffffffff1661205b565b15611d31578373ffffffffffffffffffffffffffffffffffffffff1663150b7a02611c01610fc3565b8786866040518563ffffffff1660e01b8152600401611c2394939291906139f2565b6020604051808303816000875af1925050508015611c5f57506040513d601f19601f82011682018060405250810190611c5c9190613a53565b60015b611ce1573d8060008114611c8f576040519150601f19603f3d011682016040523d82523d6000602084013e611c94565b606091505b506000815103611cd9576040517f08c379a0000000000000000000000000000000000000000000000000000000008152600401611cd0906137b3565b60405180910390fd5b805181602001fd5b63150b7a0260e01b7bffffffffffffffffffffffffffffffffffffffffffffffffffffffff1916817bffffffffffffffffffffffffffffffffffffffffffffffffffffffff191614915050611d36565b600190505b949350505050565b6060600f8054611d4d90612fa3565b80601f0160208091040260200160405190810160405280929190818152602001828054611d7990612fa3565b8015611dc65780601f10611d9b57610100808354040283529160200191611dc6565b820191906000526020600020905b815481529060010190602001808311611da957829003601f168201915b5050505050905090565b6060611ddb82610f78565b6000611de5611d3e565b90506000815111611e055760405180602001604052806000815250611e30565b80611e0f8461207e565b604051602001611e2092919061380f565b6040516020818303038152906040525b915050919050565b611e42838361214c565b611e4f6000848484611bb7565b611e8e576040517f08c379a0000000000000000000000000000000000000000000000000000000008152600401611e85906137b3565b60405180910390fd5b505050565b60007f01ffc9a7000000000000000000000000000000000000000000000000000000007bffffffffffffffffffffffffffffffffffffffffffffffffffffffff1916827bffffffffffffffffffffffffffffffffffffffffffffffffffffffff1916149050919050565b611f0984848484612369565b6001811115611f4d576040517f08c379a0000000000000000000000000000000000000000000000000000000008152600401611f4490613af2565b60405180910390fd5b6000829050600073ffffffffffffffffffffffffffffffffffffffff168573ffffffffffffffffffffffffffffffffffffffff1603611f9457611f8f8161236f565b611fd3565b8373ffffffffffffffffffffffffffffffffffffffff168573ffffffffffffffffffffffffffffffffffffffff1614611fd257611fd185826123b8565b5b5b600073ffffffffffffffffffffffffffffffffffffffff168473ffffffffffffffffffffffffffffffffffffffff16036120155761201081612525565b612054565b8473ffffffffffffffffffffffffffffffffffffffff168473ffffffffffffffffffffffffffffffffffffffff16146120535761205284826125f6565b5b5b5050505050565b6000808273ffffffffffffffffffffffffffffffffffffffff163b119050919050565b60606000600161208d84612675565b01905060008167ffffffffffffffff8111156120ac576120ab612ba7565b5b6040519080825280601f01601f1916602001820160405280156120de5781602001600182028036833780820191505090505b509050600082602001820190505b600115612141578080600190039150507f3031323334353637383961626364656600000000000000000000000000000000600a86061a8153600a858161213557612134613b12565b5b049450600085036120ec575b819350505050919050565b600073ffffffffffffffffffffffffffffffffffffffff168273ffffffffffffffffffffffffffffffffffffffff16036121bb576040517f08c379a00000000000000000000000000000000000000000000000000000000081526004016121b290613b8d565b60405180910390fd5b6121c481611acb565b15612204576040517f08c379a00000000000000000000000000000000000000000000000000000000081526004016121fb90613bf9565b60405180910390fd5b612212600083836001611b0c565b61221b81611acb565b1561225b576040517f08c379a000000000000000000000000000000000000000000000000000000000815260040161225290613bf9565b60405180910390fd5b6001600360008473ffffffffffffffffffffffffffffffffffffffff1673ffffffffffffffffffffffffffffffffffffffff16815260200190815260200160002060008282540192505081905550816002600083815260200190815260200160002060006101000a81548173ffffffffffffffffffffffffffffffffffffffff021916908373ffffffffffffffffffffffffffffffffffffffff160217905550808273ffffffffffffffffffffffffffffffffffffffff16600073ffffffffffffffffffffffffffffffffffffffff167fddf252ad1be2c89b69c2b068fc378daa952ba7f163c4a11628f55a4df523b3ef60405160405180910390a4612365600083836001611b1e565b5050565b50505050565b6008805490506009600083815260200190815260200160002081905550600881908060018154018082558091505060019003906000526020600020016000909190919091505550565b600060016123c584610aaa565b6123cf9190613c48565b90506000600760008481526020019081526020016000205490508181146124b4576000600660008673ffffffffffffffffffffffffffffffffffffffff1673ffffffffffffffffffffffffffffffffffffffff168152602001908152602001600020600084815260200190815260200160002054905080600660008773ffffffffffffffffffffffffffffffffffffffff1673ffffffffffffffffffffffffffffffffffffffff168152602001908152602001600020600084815260200190815260200160002081905550816007600083815260200190815260200160002081905550505b6007600084815260200190815260200160002060009055600660008573ffffffffffffffffffffffffffffffffffffffff1673ffffffffffffffffffffffffffffffffffffffff16815260200190815260200160002060008381526020019081526020016000206000905550505050565b600060016008805490506125399190613c48565b9050600060096000848152602001908152602001600020549050600060088381548110612569576125686132ae565b5b90600052602060002001549050806008838154811061258b5761258a6132ae565b5b9060005260206000200181905550816009600083815260200190815260200160002081905550600960008581526020019081526020016000206000905560088054806125da576125d9613c7c565b5b6001900381819060005260206000200160009055905550505050565b600061260183610aaa565b905081600660008573ffffffffffffffffffffffffffffffffffffffff1673ffffffffffffffffffffffffffffffffffffffff168152602001908152602001600020600083815260200190815260200160002081905550806007600084815260200190815260200160002081905550505050565b600080600090507a184f03e93ff9f4daa797ed6e38ed64bf6a1f01000000000000000083106126d3577a184f03e93ff9f4daa797ed6e38ed64bf6a1f01000000000000000083816126c9576126c8613b12565b5b0492506040810190505b6d04ee2d6d415b85acef81000000008310612710576d04ee2d6d415b85acef8100000000838161270657612705613b12565b5b0492506020810190505b662386f26fc10000831061273f57662386f26fc10000838161273557612734613b12565b5b0492506010810190505b6305f5e1008310612768576305f5e100838161275e5761275d613b12565b5b0492506008810190505b612710831061278d57612710838161278357612782613b12565b5b0492506004810190505b606483106127b057606483816127a6576127a5613b12565b5b0492506002810190505b600a83106127bf576001810190505b80915050919050565b8280546127d490612fa3565b90600052602060002090601f0160209004810192826127f6576000855561283d565b82601f1061280f57805160ff191683800117855561283d565b8280016001018555821561283d579182015b8281111561283c578251825591602001919060010190612821565b5b50905061284a919061284e565b5090565b5b8082111561286757600081600090555060010161284f565b5090565b6000604051905090565b600080fd5b600080fd5b60007fffffffff0000000000000000000000000000000000000000000000000000000082169050919050565b6128b48161287f565b81146128bf57600080fd5b50565b6000813590506128d1816128ab565b92915050565b6000602082840312156128ed576128ec612875565b5b60006128fb848285016128c2565b91505092915050565b60008115159050919050565b61291981612904565b82525050565b60006020820190506129346000830184612910565b92915050565b600081519050919050565b600082825260208201905092915050565b60005b83811015612974578082015181840152602081019050612959565b83811115612983576000848401525b50505050565b6000601f19601f8301169050919050565b60006129a58261293a565b6129af8185612945565b93506129bf818560208601612956565b6129c881612989565b840191505092915050565b600060208201905081810360008301526129ed818461299a565b905092915050565b6000819050919050565b612a08816129f5565b8114612a1357600080fd5b50565b600081359050612a25816129ff565b92915050565b600060208284031215612a4157612a40612875565b5b6000612a4f84828501612a16565b91505092915050565b600073ffffffffffffffffffffffffffffffffffffffff82169050919050565b6000612a8382612a58565b9050919050565b612a9381612a78565b82525050565b6000602082019050612aae6000830184612a8a565b92915050565b612abd81612a78565b8114612ac857600080fd5b50565b600081359050612ada81612ab4565b92915050565b60008060408385031215612af757612af6612875565b5b6000612b0585828601612acb565b9250506020612b1685828601612a16565b9150509250929050565b612b29816129f5565b82525050565b6000602082019050612b446000830184612b20565b92915050565b600080600060608486031215612b6357612b62612875565b5b6000612b7186828701612acb565b9350506020612b8286828701612acb565b9250506040612b9386828701612a16565b9150509250925092565b600080fd5b600080fd5b7f4e487b7100000000000000000000000000000000000000000000000000000000600052604160045260246000fd5b612bdf82612989565b810181811067ffffffffffffffff82111715612bfe57612bfd612ba7565b5b80604052505050565b6000612c1161286b565b9050612c1d8282612bd6565b919050565b600067ffffffffffffffff821115612c3d57612c3c612ba7565b5b612c4682612989565b9050602081019050919050565b82818337600083830152505050565b6000612c75612c7084612c22565b612c07565b905082815260208101848484011115612c9157612c90612ba2565b5b612c9c848285612c53565b509392505050565b600082601f830112612cb957612cb8612b9d565b5b8135612cc9848260208601612c62565b91505092915050565b600060208284031215612ce857612ce7612875565b5b600082013567ffffffffffffffff811115612d0657612d0561287a565b5b612d1284828501612ca4565b91505092915050565b600060208284031215612d3157612d30612875565b5b6000612d3f84828501612acb565b91505092915050565b612d5181612904565b8114612d5c57600080fd5b50565b600081359050612d6e81612d48565b92915050565b60008060408385031215612d8b57612d8a612875565b5b6000612d9985828601612acb565b9250506020612daa85828601612d5f565b9150509250929050565b600067ffffffffffffffff821115612dcf57612dce612ba7565b5b612dd882612989565b9050602081019050919050565b6000612df8612df384612db4565b612c07565b905082815260208101848484011115612e1457612e13612ba2565b5b612e1f848285612c53565b509392505050565b600082601f830112612e3c57612e3b612b9d565b5b8135612e4c848260208601612de5565b91505092915050565b60008060008060808587031215612e6f57612e6e612875565b5b6000612e7d87828801612acb565b9450506020612e8e87828801612acb565b9350506040612e9f87828801612a16565b925050606085013567ffffffffffffffff811115612ec057612ebf61287a565b5b612ecc87828801612e27565b91505092959194509250565b60008060408385031215612eef57612eee612875565b5b6000612efd85828601612acb565b925050602083013567ffffffffffffffff811115612f1e57612f1d61287a565b5b612f2a85828601612ca4565b9150509250929050565b60008060408385031215612f4b57612f4a612875565b5b6000612f5985828601612acb565b9250506020612f6a85828601612acb565b9150509250929050565b7f4e487b7100000000000000000000000000000000000000000000000000000000600052602260045260246000fd5b60006002820490506001821680612fbb57607f821691505b602082108103612fce57612fcd612f74565b5b50919050565b7f4552433732313a20617070726f76616c20746f2063757272656e74206f776e6560008201527f7200000000000000000000000000000000000000000000000000000000000000602082015250565b6000613030602183612945565b915061303b82612fd4565b604082019050919050565b6000602082019050818103600083015261305f81613023565b9050919050565b7f4552433732313a20617070726f76652063616c6c6572206973206e6f7420746f60008201527f6b656e206f776e6572206f7220617070726f76656420666f7220616c6c000000602082015250565b60006130c2603d83612945565b91506130cd82613066565b604082019050919050565b600060208201905081810360008301526130f1816130b5565b9050919050565b7f4552433732313a2063616c6c6572206973206e6f7420746f6b656e206f776e6560008201527f72206f7220617070726f76656400000000000000000000000000000000000000602082015250565b6000613154602d83612945565b915061315f826130f8565b604082019050919050565b6000602082019050818103600083015261318381613147565b9050919050565b7f455243373231456e756d657261626c653a206f776e657220696e646578206f7560008201527f74206f6620626f756e6473000000000000000000000000000000000000000000602082015250565b60006131e6602b83612945565b91506131f18261318a565b604082019050919050565b60006020820190508181036000830152613215816131d9565b9050919050565b7f455243373231456e756d657261626c653a20676c6f62616c20696e646578206f60008201527f7574206f6620626f756e64730000000000000000000000000000000000000000602082015250565b6000613278602c83612945565b91506132838261321c565b604082019050919050565b600060208201905081810360008301526132a78161326b565b9050919050565b7f4e487b7100000000000000000000000000000000000000000000000000000000600052603260045260246000fd5b7f4552433732313a20696e76616c696420746f6b656e2049440000000000000000600082015250565b6000613313601883612945565b915061331e826132dd565b602082019050919050565b6000602082019050818103600083015261334281613306565b9050919050565b7f4552433732313a2061646472657373207a65726f206973206e6f74206120766160008201527f6c6964206f776e65720000000000000000000000000000000000000000000000602082015250565b60006133a5602983612945565b91506133b082613349565b604082019050919050565b600060208201905081810360008301526133d481613398565b9050919050565b7f43616e2774206d696e7420616e796d6f726520746f6b656e732e000000000000600082015250565b6000613411601a83612945565b915061341c826133db565b602082019050919050565b6000602082019050818103600083015261344081613404565b9050919050565b7f4e6f7420656e6f7567682065746865722073656e742e00000000000000000000600082015250565b600061347d601683612945565b915061348882613447565b602082019050919050565b600060208201905081810360008301526134ac81613470565b9050919050565b7f4f776e61626c653a206e6577206f776e657220697320746865207a65726f206160008201527f6464726573730000000000000000000000000000000000000000000000000000602082015250565b600061350f602683612945565b915061351a826134b3565b604082019050919050565b6000602082019050818103600083015261353e81613502565b9050919050565b7f4552433732313a207472616e736665722066726f6d20696e636f72726563742060008201527f6f776e6572000000000000000000000000000000000000000000000000000000602082015250565b60006135a1602583612945565b91506135ac82613545565b604082019050919050565b600060208201905081810360008301526135d081613594565b9050919050565b7f4552433732313a207472616e7366657220746f20746865207a65726f2061646460008201527f7265737300000000000000000000000000000000000000000000000000000000602082015250565b6000613633602483612945565b915061363e826135d7565b604082019050919050565b6000602082019050818103600083015261366281613626565b9050919050565b7f4f776e61626c653a2063616c6c6572206973206e6f7420746865206f776e6572600082015250565b600061369f602083612945565b91506136aa82613669565b602082019050919050565b600060208201905081810360008301526136ce81613692565b9050919050565b7f4552433732313a20617070726f766520746f2063616c6c657200000000000000600082015250565b600061370b601983612945565b9150613716826136d5565b602082019050919050565b6000602082019050818103600083015261373a816136fe565b9050919050565b7f4552433732313a207472616e7366657220746f206e6f6e20455243373231526560008201527f63656976657220696d706c656d656e7465720000000000000000000000000000602082015250565b600061379d603283612945565b91506137a882613741565b604082019050919050565b600060208201905081810360008301526137cc81613790565b9050919050565b600081905092915050565b60006137e98261293a565b6137f381856137d3565b9350613803818560208601612956565b80840191505092915050565b600061381b82856137de565b915061382782846137de565b91508190509392505050565b7f45524337323155524953746f726167653a2055524920736574206f66206e6f6e60008201527f6578697374656e7420746f6b656e000000000000000000000000000000000000602082015250565b600061388f602e83612945565b915061389a82613833565b604082019050919050565b600060208201905081810360008301526138be81613882565b9050919050565b7f5061757361626c653a206e6f7420706175736564000000000000000000000000600082015250565b60006138fb601483612945565b9150613906826138c5565b602082019050919050565b6000602082019050818103600083015261392a816138ee565b9050919050565b7f5061757361626c653a2070617573656400000000000000000000000000000000600082015250565b6000613967601083612945565b915061397282613931565b602082019050919050565b600060208201905081810360008301526139968161395a565b9050919050565b600081519050919050565b600082825260208201905092915050565b60006139c48261399d565b6139ce81856139a8565b93506139de818560208601612956565b6139e781612989565b840191505092915050565b6000608082019050613a076000830187612a8a565b613a146020830186612a8a565b613a216040830185612b20565b8181036060830152613a3381846139b9565b905095945050505050565b600081519050613a4d816128ab565b92915050565b600060208284031215613a6957613a68612875565b5b6000613a7784828501613a3e565b91505092915050565b7f455243373231456e756d657261626c653a20636f6e736563757469766520747260008201527f616e7366657273206e6f7420737570706f727465640000000000000000000000602082015250565b6000613adc603583612945565b9150613ae782613a80565b604082019050919050565b60006020820190508181036000830152613b0b81613acf565b9050919050565b7f4e487b7100000000000000000000000000000000000000000000000000000000600052601260045260246000fd5b7f4552433732313a206d696e7420746f20746865207a65726f2061646472657373600082015250565b6000613b77602083612945565b9150613b8282613b41565b602082019050919050565b60006020820190508181036000830152613ba681613b6a565b9050919050565b7f4552433732313a20746f6b656e20616c7265616479206d696e74656400000000600082015250565b6000613be3601c83612945565b9150613bee82613bad565b602082019050919050565b60006020820190508181036000830152613c1281613bd6565b9050919050565b7f4e487b7100000000000000000000000000000000000000000000000000000000600052601160045260246000fd5b6000613c53826129f5565b9150613c5e836129f5565b925082821015613c7157613c70613c19565b5b828203905092915050565b7f4e487b7100000000000000000000000000000000000000000000000000000000600052603160045260246000fdfea2646970667358221220001178e271d1650cdefb7dcc282b4aea431afb73311248a9f2930d4aef319e1364736f6c634300080d0033",
  "immutableReferences": {},
  "source": "// SPDX-License-Identifier: MIT\npragma solidity ^0.8.9;\n\nimport \"@openzeppelin/contracts/token/ERC721/ERC721.sol\";\nimport \"@openzeppelin/contracts/token/ERC721/extensions/ERC721Enumerable.sol\";\nimport \"@openzeppelin/contracts/token/ERC721/extensions/ERC721URIStorage.sol\";\nimport \"@openzeppelin/contracts/access/Ownable.sol\";\nimport \"@openzeppelin/contracts/utils/Counters.sol\";\nimport \"@openzeppelin/contracts/security/Pausable.sol\";\n\ncontract MyToken is ERC721, ERC721Enumerable, ERC721URIStorage, Ownable, Pausable {\n    using Counters for Counters.Counter;\n\n    uint256 public MINT_PRICE = 0.01 ether;  //Change this value as per your requirement\n    uint public MAX_SUPPLY = 10;            //Change this value as per your requirement\n\n    Counters.Counter private _tokenIdCounter;\n    string private baseURI;\n\n    event Minted(address indexed to, uint256 indexed tokenId);\n\n    constructor(string memory _baseURI) ERC721(\"MyToken\", \"MTK\") {\n        baseURI = _baseURI;\n    }\n\n    function _baseURI() internal view override returns (string memory) {\n        return baseURI;\n    }\n\n    function setBaseURI(string memory _baseURI) public onlyOwner {\n        baseURI = _baseURI;\n    }\n\n    function pause() public onlyOwner {\n        _pause();\n    }\n\n    function unpause() public onlyOwner {\n        _unpause();\n    }\n\n    function safeMint(address to, string memory uri) public payable onlyOwner returns(uint256){\n        require(totalSupply() < MAX_SUPPLY, \"Can't mint anymore tokens.\");\n        require(msg.value >= MINT_PRICE, \"Not enough ether sent.\");\n        uint256 tokenId = _tokenIdCounter.current();\n        _tokenIdCounter.increment();\n        _safeMint(to, tokenId);\n        _setTokenURI(tokenId, uri);\n        emit Minted(to, tokenId);\n        return tokenId;\n    }\n\n    // The following functions are overrides required by Solidity.\n\n    function _beforeTokenTransfer(address from, address to, uint256 tokenId, uint256 batchSize)\n        internal\n        override(ERC721, ERC721Enumerable)\n    {\n        super._beforeTokenTransfer(from, to, tokenId, batchSize);\n    }\n\n    function _burn(uint256 tokenId) internal override(ERC721, ERC721URIStorage) {\n        super._burn(tokenId);\n    }\n\n    function tokenURI(uint256 tokenId)\n        public\n        view\n        override(ERC721, ERC721URIStorage)\n        returns (string memory)\n    {\n        return super.tokenURI(tokenId);\n    }\n\n    function supportsInterface(bytes4 interfaceId)\n        public\n        view\n        override(ERC721, ERC721Enumerable)\n        returns (bool)\n    {\n        return super.supportsInterface(interfaceId);\n    }\n}",
  "sourcePath": "/Users/timothyshen/how-to-create-a-on-NFT-Marketplace-on-BSC/05-How to create a NFT Mint on BSC/contracts/NFTCollection.sol",
  "compiler": {
    "name": "solc",
    "version": "0.8.13+commit.abaa5c0e.Emscripten.clang"
  },
  "schemaVersion": "3.4.13",
  "updatedAt": "2023-04-26T17:10:27.634Z",
  "devdoc": {
    "kind": "dev",
    "methods": {
      "approve(address,uint256)": {
        "details": "See {IERC721-approve}."
      },
      "balanceOf(address)": {
        "details": "See {IERC721-balanceOf}."
      },
      "getApproved(uint256)": {
        "details": "See {IERC721-getApproved}."
      },
      "isApprovedForAll(address,address)": {
        "details": "See {IERC721-isApprovedForAll}."
      },
      "name()": {
        "details": "See {IERC721Metadata-name}."
      },
      "owner()": {
        "details": "Returns the address of the current owner."
      },
      "ownerOf(uint256)": {
        "details": "See {IERC721-ownerOf}."
      },
      "paused()": {
        "details": "Returns true if the contract is paused, and false otherwise."
      },
      "renounceOwnership()": {
        "details": "Leaves the contract without owner. It will not be possible to call `onlyOwner` functions anymore. Can only be called by the current owner. NOTE: Renouncing ownership will leave the contract without an owner, thereby removing any functionality that is only available to the owner."
      },
      "safeTransferFrom(address,address,uint256)": {
        "details": "See {IERC721-safeTransferFrom}."
      },
      "safeTransferFrom(address,address,uint256,bytes)": {
        "details": "See {IERC721-safeTransferFrom}."
      },
      "setApprovalForAll(address,bool)": {
        "details": "See {IERC721-setApprovalForAll}."
      },
      "symbol()": {
        "details": "See {IERC721Metadata-symbol}."
      },
      "tokenByIndex(uint256)": {
        "details": "See {IERC721Enumerable-tokenByIndex}."
      },
      "tokenOfOwnerByIndex(address,uint256)": {
        "details": "See {IERC721Enumerable-tokenOfOwnerByIndex}."
      },
      "totalSupply()": {
        "details": "See {IERC721Enumerable-totalSupply}."
      },
      "transferFrom(address,address,uint256)": {
        "details": "See {IERC721-transferFrom}."
      },
      "transferOwnership(address)": {
        "details": "Transfers ownership of the contract to a new account (`newOwner`). Can only be called by the current owner."
      }
    },
    "version": 1
  },
  "userdoc": {
    "kind": "user",
    "methods": {},
    "version": 1
  }
}